{
  "contractName": "FirearmToken",
  "abi": [
    {
      "inputs": [
        {
          "internalType": "address",
          "name": "initialOwner",
          "type": "address"
        }
      ],
      "stateMutability": "nonpayable",
      "type": "constructor"
    },
    {
      "inputs": [
        {
          "internalType": "address",
          "name": "sender",
          "type": "address"
        },
        {
          "internalType": "uint256",
          "name": "tokenId",
          "type": "uint256"
        },
        {
          "internalType": "address",
          "name": "owner",
          "type": "address"
        }
      ],
      "name": "ERC721IncorrectOwner",
      "type": "error"
    },
    {
      "inputs": [
        {
          "internalType": "address",
          "name": "operator",
          "type": "address"
        },
        {
          "internalType": "uint256",
          "name": "tokenId",
          "type": "uint256"
        }
      ],
      "name": "ERC721InsufficientApproval",
      "type": "error"
    },
    {
      "inputs": [
        {
          "internalType": "address",
          "name": "approver",
          "type": "address"
        }
      ],
      "name": "ERC721InvalidApprover",
      "type": "error"
    },
    {
      "inputs": [
        {
          "internalType": "address",
          "name": "operator",
          "type": "address"
        }
      ],
      "name": "ERC721InvalidOperator",
      "type": "error"
    },
    {
      "inputs": [
        {
          "internalType": "address",
          "name": "owner",
          "type": "address"
        }
      ],
      "name": "ERC721InvalidOwner",
      "type": "error"
    },
    {
      "inputs": [
        {
          "internalType": "address",
          "name": "receiver",
          "type": "address"
        }
      ],
      "name": "ERC721InvalidReceiver",
      "type": "error"
    },
    {
      "inputs": [
        {
          "internalType": "address",
          "name": "sender",
          "type": "address"
        }
      ],
      "name": "ERC721InvalidSender",
      "type": "error"
    },
    {
      "inputs": [
        {
          "internalType": "uint256",
          "name": "tokenId",
          "type": "uint256"
        }
      ],
      "name": "ERC721NonexistentToken",
      "type": "error"
    },
    {
      "inputs": [
        {
          "internalType": "address",
          "name": "owner",
          "type": "address"
        }
      ],
      "name": "OwnableInvalidOwner",
      "type": "error"
    },
    {
      "inputs": [
        {
          "internalType": "address",
          "name": "account",
          "type": "address"
        }
      ],
      "name": "OwnableUnauthorizedAccount",
      "type": "error"
    },
    {
      "anonymous": false,
      "inputs": [
        {
          "indexed": true,
          "internalType": "address",
          "name": "owner",
          "type": "address"
        },
        {
          "indexed": true,
          "internalType": "address",
          "name": "approved",
          "type": "address"
        },
        {
          "indexed": true,
          "internalType": "uint256",
          "name": "tokenId",
          "type": "uint256"
        }
      ],
      "name": "Approval",
      "type": "event"
    },
    {
      "anonymous": false,
      "inputs": [
        {
          "indexed": true,
          "internalType": "address",
          "name": "owner",
          "type": "address"
        },
        {
          "indexed": true,
          "internalType": "address",
          "name": "operator",
          "type": "address"
        },
        {
          "indexed": false,
          "internalType": "bool",
          "name": "approved",
          "type": "bool"
        }
      ],
      "name": "ApprovalForAll",
      "type": "event"
    },
    {
      "anonymous": false,
      "inputs": [
        {
          "indexed": false,
          "internalType": "uint256",
          "name": "_fromTokenId",
          "type": "uint256"
        },
        {
          "indexed": false,
          "internalType": "uint256",
          "name": "_toTokenId",
          "type": "uint256"
        }
      ],
      "name": "BatchMetadataUpdate",
      "type": "event"
    },
    {
      "anonymous": false,
      "inputs": [
        {
          "indexed": false,
          "internalType": "uint256",
          "name": "_tokenId",
          "type": "uint256"
        }
      ],
      "name": "MetadataUpdate",
      "type": "event"
    },
    {
      "anonymous": false,
      "inputs": [
        {
          "indexed": true,
          "internalType": "address",
          "name": "previousOwner",
          "type": "address"
        },
        {
          "indexed": true,
          "internalType": "address",
          "name": "newOwner",
          "type": "address"
        }
      ],
      "name": "OwnershipTransferred",
      "type": "event"
    },
    {
      "anonymous": false,
      "inputs": [
        {
          "indexed": true,
          "internalType": "address",
          "name": "from",
          "type": "address"
        },
        {
          "indexed": true,
          "internalType": "address",
          "name": "to",
          "type": "address"
        },
        {
          "indexed": true,
          "internalType": "uint256",
          "name": "tokenId",
          "type": "uint256"
        }
      ],
      "name": "Transfer",
      "type": "event"
    },
    {
      "inputs": [
        {
          "internalType": "address",
          "name": "to",
          "type": "address"
        },
        {
          "internalType": "uint256",
          "name": "tokenId",
          "type": "uint256"
        }
      ],
      "name": "approve",
      "outputs": [],
      "stateMutability": "nonpayable",
      "type": "function"
    },
    {
      "inputs": [
        {
          "internalType": "address",
          "name": "owner",
          "type": "address"
        }
      ],
      "name": "balanceOf",
      "outputs": [
        {
          "internalType": "uint256",
          "name": "",
          "type": "uint256"
        }
      ],
      "stateMutability": "view",
      "type": "function"
    },
    {
      "inputs": [
        {
          "internalType": "uint256",
          "name": "tokenId",
          "type": "uint256"
        }
      ],
      "name": "getApproved",
      "outputs": [
        {
          "internalType": "address",
          "name": "",
          "type": "address"
        }
      ],
      "stateMutability": "view",
      "type": "function"
    },
    {
      "inputs": [
        {
          "internalType": "address",
          "name": "owner",
          "type": "address"
        },
        {
          "internalType": "address",
          "name": "operator",
          "type": "address"
        }
      ],
      "name": "isApprovedForAll",
      "outputs": [
        {
          "internalType": "bool",
          "name": "",
          "type": "bool"
        }
      ],
      "stateMutability": "view",
      "type": "function"
    },
    {
      "inputs": [],
      "name": "name",
      "outputs": [
        {
          "internalType": "string",
          "name": "",
          "type": "string"
        }
      ],
      "stateMutability": "view",
      "type": "function"
    },
    {
      "inputs": [],
      "name": "nextId",
      "outputs": [
        {
          "internalType": "uint256",
          "name": "",
          "type": "uint256"
        }
      ],
      "stateMutability": "view",
      "type": "function"
    },
    {
      "inputs": [],
      "name": "owner",
      "outputs": [
        {
          "internalType": "address",
          "name": "",
          "type": "address"
        }
      ],
      "stateMutability": "view",
      "type": "function"
    },
    {
      "inputs": [
        {
          "internalType": "uint256",
          "name": "tokenId",
          "type": "uint256"
        }
      ],
      "name": "ownerOf",
      "outputs": [
        {
          "internalType": "address",
          "name": "",
          "type": "address"
        }
      ],
      "stateMutability": "view",
      "type": "function"
    },
    {
      "inputs": [],
      "name": "renounceOwnership",
      "outputs": [],
      "stateMutability": "nonpayable",
      "type": "function"
    },
    {
      "inputs": [
        {
          "internalType": "address",
          "name": "from",
          "type": "address"
        },
        {
          "internalType": "address",
          "name": "to",
          "type": "address"
        },
        {
          "internalType": "uint256",
          "name": "tokenId",
          "type": "uint256"
        }
      ],
      "name": "safeTransferFrom",
      "outputs": [],
      "stateMutability": "nonpayable",
      "type": "function"
    },
    {
      "inputs": [
        {
          "internalType": "address",
          "name": "from",
          "type": "address"
        },
        {
          "internalType": "address",
          "name": "to",
          "type": "address"
        },
        {
          "internalType": "uint256",
          "name": "tokenId",
          "type": "uint256"
        },
        {
          "internalType": "bytes",
          "name": "data",
          "type": "bytes"
        }
      ],
      "name": "safeTransferFrom",
      "outputs": [],
      "stateMutability": "nonpayable",
      "type": "function"
    },
    {
      "inputs": [
        {
          "internalType": "uint256",
          "name": "",
          "type": "uint256"
        }
      ],
      "name": "serialHash",
      "outputs": [
        {
          "internalType": "bytes32",
          "name": "",
          "type": "bytes32"
        }
      ],
      "stateMutability": "view",
      "type": "function"
    },
    {
      "inputs": [
        {
          "internalType": "address",
          "name": "operator",
          "type": "address"
        },
        {
          "internalType": "bool",
          "name": "approved",
          "type": "bool"
        }
      ],
      "name": "setApprovalForAll",
      "outputs": [],
      "stateMutability": "nonpayable",
      "type": "function"
    },
    {
      "inputs": [
        {
          "internalType": "bytes4",
          "name": "interfaceId",
          "type": "bytes4"
        }
      ],
      "name": "supportsInterface",
      "outputs": [
        {
          "internalType": "bool",
          "name": "",
          "type": "bool"
        }
      ],
      "stateMutability": "view",
      "type": "function"
    },
    {
      "inputs": [],
      "name": "symbol",
      "outputs": [
        {
          "internalType": "string",
          "name": "",
          "type": "string"
        }
      ],
      "stateMutability": "view",
      "type": "function"
    },
    {
      "inputs": [
        {
          "internalType": "uint256",
          "name": "tokenId",
          "type": "uint256"
        }
      ],
      "name": "tokenURI",
      "outputs": [
        {
          "internalType": "string",
          "name": "",
          "type": "string"
        }
      ],
      "stateMutability": "view",
      "type": "function"
    },
    {
      "inputs": [
        {
          "internalType": "address",
          "name": "from",
          "type": "address"
        },
        {
          "internalType": "address",
          "name": "to",
          "type": "address"
        },
        {
          "internalType": "uint256",
          "name": "tokenId",
          "type": "uint256"
        }
      ],
      "name": "transferFrom",
      "outputs": [],
      "stateMutability": "nonpayable",
      "type": "function"
    },
    {
      "inputs": [
        {
          "internalType": "address",
          "name": "newOwner",
          "type": "address"
        }
      ],
      "name": "transferOwnership",
      "outputs": [],
      "stateMutability": "nonpayable",
      "type": "function"
    },
    {
      "inputs": [
        {
          "internalType": "bytes32",
          "name": "_serialHash",
          "type": "bytes32"
        },
        {
          "internalType": "string",
          "name": "_uri",
          "type": "string"
        }
      ],
      "name": "mint",
      "outputs": [
        {
          "internalType": "uint256",
          "name": "",
          "type": "uint256"
        }
      ],
      "stateMutability": "nonpayable",
      "type": "function"
    }
  ],
  "bytecode": "0x608060405234801562000010575f80fd5b5060405162002cc338038062002cc383398181016040528101906200003691906200027c565b806040518060400160405280600c81526020017f4669726561726d546f6b656e00000000000000000000000000000000000000008152506040518060400160405280600381526020017f47554e0000000000000000000000000000000000000000000000000000000000815250815f9081620000b3919062000510565b508060019081620000c5919062000510565b5050505f73ffffffffffffffffffffffffffffffffffffffff168173ffffffffffffffffffffffffffffffffffffffff16036200013b575f6040517f1e4fbdf700000000000000000000000000000000000000000000000000000000815260040162000132919062000605565b60405180910390fd5b6200014c816200015460201b60201c565b505062000620565b5f60075f9054906101000a900473ffffffffffffffffffffffffffffffffffffffff1690508160075f6101000a81548173ffffffffffffffffffffffffffffffffffffffff021916908373ffffffffffffffffffffffffffffffffffffffff1602179055508173ffffffffffffffffffffffffffffffffffffffff168173ffffffffffffffffffffffffffffffffffffffff167f8be0079c531659141344cd1fd0a4f28419497f9722a3daafe3b4186f6b6457e060405160405180910390a35050565b5f80fd5b5f73ffffffffffffffffffffffffffffffffffffffff82169050919050565b5f62000246826200021b565b9050919050565b62000258816200023a565b811462000263575f80fd5b50565b5f8151905062000276816200024d565b92915050565b5f6020828403121562000294576200029362000217565b5b5f620002a38482850162000266565b91505092915050565b5f81519050919050565b7f4e487b71000000000000000000000000000000000000000000000000000000005f52604160045260245ffd5b7f4e487b71000000000000000000000000000000000000000000000000000000005f52602260045260245ffd5b5f60028204905060018216806200032857607f821691505b6020821081036200033e576200033d620002e3565b5b50919050565b5f819050815f5260205f209050919050565b5f6020601f8301049050919050565b5f82821b905092915050565b5f60088302620003a27fffffffffffffffffffffffffffffffffffffffffffffffffffffffffffffffff8262000365565b620003ae868362000365565b95508019841693508086168417925050509392505050565b5f819050919050565b5f819050919050565b5f620003f8620003f2620003ec84620003c6565b620003cf565b620003c6565b9050919050565b5f819050919050565b6200041383620003d8565b6200042b6200042282620003ff565b84845462000371565b825550505050565b5f90565b6200044162000433565b6200044e81848462000408565b505050565b5b818110156200047557620004695f8262000437565b60018101905062000454565b5050565b601f821115620004c4576200048e8162000344565b620004998462000356565b81016020851015620004a9578190505b620004c1620004b88562000356565b83018262000453565b50505b505050565b5f82821c905092915050565b5f620004e65f1984600802620004c9565b1980831691505092915050565b5f620005008383620004d5565b9150826002028217905092915050565b6200051b82620002ac565b67ffffffffffffffff811115620005375762000536620002b6565b5b62000543825462000310565b6200055082828562000479565b5f60209050601f83116001811462000586575f841562000571578287015190505b6200057d8582620004f3565b865550620005ec565b601f198416620005968662000344565b5f5b82811015620005bf5784890151825560018201915060208501945060208101905062000598565b86831015620005df5784890151620005db601f891682620004d5565b8355505b6001600288020188555050505b505050505050565b620005ff816200023a565b82525050565b5f6020820190506200061a5f830184620005f4565b92915050565b612695806200062e5f395ff3fe608060405234801561000f575f80fd5b506004361061011f575f3560e01c8063715018a6116100ab578063b88d4fde1161006f578063b88d4fde14610305578063c87b56dd14610321578063e985e9c514610351578063ee7242e314610381578063f2fde38b146103b15761011f565b8063715018a6146102735780638da5cb5b1461027d57806395d89b411461029b5780639605266f146102b9578063a22cb465146102e95761011f565b806323b872dd116100f257806323b872dd146101bd57806342842e0e146101d957806361b8ce8c146101f55780636352211e1461021357806370a08231146102435761011f565b806301ffc9a71461012357806306fdde0314610153578063081812fc14610171578063095ea7b3146101a1575b5f80fd5b61013d60048036038101906101389190611af3565b6103cd565b60405161014a9190611b38565b60405180910390f35b61015b61042d565b6040516101689190611bdb565b60405180910390f35b61018b60048036038101906101869190611c2e565b6104bc565b6040516101989190611c98565b60405180910390f35b6101bb60048036038101906101b69190611cdb565b6104d7565b005b6101d760048036038101906101d29190611d19565b6104ed565b005b6101f360048036038101906101ee9190611d19565b6105ec565b005b6101fd61060b565b60405161020a9190611d78565b60405180910390f35b61022d60048036038101906102289190611c2e565b610611565b60405161023a9190611c98565b60405180910390f35b61025d60048036038101906102589190611d91565b610622565b60405161026a9190611d78565b60405180910390f35b61027b6106d8565b005b6102856106eb565b6040516102929190611c98565b60405180910390f35b6102a3610713565b6040516102b09190611bdb565b60405180910390f35b6102d360048036038101906102ce9190611c2e565b6107a3565b6040516102e09190611dd4565b60405180910390f35b61030360048036038101906102fe9190611e17565b6107b8565b005b61031f600480360381019061031a9190611f81565b6107ce565b005b61033b60048036038101906103369190611c2e565b6107f3565b6040516103489190611bdb565b60405180910390f35b61036b60048036038101906103669190612001565b6108fe565b6040516103789190611b38565b60405180910390f35b61039b60048036038101906103969190612107565b61098c565b6040516103a89190611d78565b60405180910390f35b6103cb60048036038101906103c69190611d91565b6109de565b005b5f634906490660e01b7bffffffffffffffffffffffffffffffffffffffffffffffffffffffff1916827bffffffffffffffffffffffffffffffffffffffffffffffffffffffff19161480610426575061042582610a62565b5b9050919050565b60605f805461043b9061218e565b80601f01602080910402602001604051908101604052809291908181526020018280546104679061218e565b80156104b25780601f10610489576101008083540402835291602001916104b2565b820191905f5260205f20905b81548152906001019060200180831161049557829003601f168201915b5050505050905090565b5f6104c682610b43565b506104d082610bc9565b9050919050565b6104e982826104e4610c02565b610c09565b5050565b5f73ffffffffffffffffffffffffffffffffffffffff168273ffffffffffffffffffffffffffffffffffffffff160361055d575f6040517f64a0ae920000000000000000000000000000000000000000000000000000000081526004016105549190611c98565b60405180910390fd5b5f610570838361056b610c02565b610c1b565b90508373ffffffffffffffffffffffffffffffffffffffff168173ffffffffffffffffffffffffffffffffffffffff16146105e6578382826040517f64283d7b0000000000000000000000000000000000000000000000000000000081526004016105dd939291906121be565b60405180910390fd5b50505050565b61060683838360405180602001604052805f8152506107ce565b505050565b60095481565b5f61061b82610b43565b9050919050565b5f8073ffffffffffffffffffffffffffffffffffffffff168273ffffffffffffffffffffffffffffffffffffffff1603610693575f6040517f89c62b6400000000000000000000000000000000000000000000000000000000815260040161068a9190611c98565b60405180910390fd5b60035f8373ffffffffffffffffffffffffffffffffffffffff1673ffffffffffffffffffffffffffffffffffffffff1681526020019081526020015f20549050919050565b6106e0610e26565b6106e95f610ead565b565b5f60075f9054906101000a900473ffffffffffffffffffffffffffffffffffffffff16905090565b6060600180546107229061218e565b80601f016020809104026020016040519081016040528092919081815260200182805461074e9061218e565b80156107995780601f1061077057610100808354040283529160200191610799565b820191905f5260205f20905b81548152906001019060200180831161077c57829003601f168201915b5050505050905090565b6008602052805f5260405f205f915090505481565b6107ca6107c3610c02565b8383610f70565b5050565b6107d98484846104ed565b6107ed6107e4610c02565b858585856110d9565b50505050565b60606107fe82610b43565b505f60065f8481526020019081526020015f20805461081c9061218e565b80601f01602080910402602001604051908101604052809291908181526020018280546108489061218e565b80156108935780601f1061086a57610100808354040283529160200191610893565b820191905f5260205f20905b81548152906001019060200180831161087657829003601f168201915b505050505090505f6108a3611285565b90505f8151036108b75781925050506108f9565b5f825111156108eb5780826040516020016108d392919061222d565b604051602081830303815290604052925050506108f9565b6108f48461129b565b925050505b919050565b5f60055f8473ffffffffffffffffffffffffffffffffffffffff1673ffffffffffffffffffffffffffffffffffffffff1681526020019081526020015f205f8373ffffffffffffffffffffffffffffffffffffffff1673ffffffffffffffffffffffffffffffffffffffff1681526020019081526020015f205f9054906101000a900460ff16905092915050565b5f80600954905060095f8154809291906109a59061227d565b91905055506109b43382611301565b6109be818461131e565b8360085f8381526020019081526020015f20819055508091505092915050565b6109e6610e26565b5f73ffffffffffffffffffffffffffffffffffffffff168173ffffffffffffffffffffffffffffffffffffffff1603610a56575f6040517f1e4fbdf7000000000000000000000000000000000000000000000000000000008152600401610a4d9190611c98565b60405180910390fd5b610a5f81610ead565b50565b5f7f80ac58cd000000000000000000000000000000000000000000000000000000007bffffffffffffffffffffffffffffffffffffffffffffffffffffffff1916827bffffffffffffffffffffffffffffffffffffffffffffffffffffffff19161480610b2c57507f5b5e139f000000000000000000000000000000000000000000000000000000007bffffffffffffffffffffffffffffffffffffffffffffffffffffffff1916827bffffffffffffffffffffffffffffffffffffffffffffffffffffffff1916145b80610b3c5750610b3b82611378565b5b9050919050565b5f80610b4e836113e1565b90505f73ffffffffffffffffffffffffffffffffffffffff168173ffffffffffffffffffffffffffffffffffffffff1603610bc057826040517f7e273289000000000000000000000000000000000000000000000000000000008152600401610bb79190611d78565b60405180910390fd5b80915050919050565b5f60045f8381526020019081526020015f205f9054906101000a900473ffffffffffffffffffffffffffffffffffffffff169050919050565b5f33905090565b610c16838383600161141a565b505050565b5f80610c26846113e1565b90505f73ffffffffffffffffffffffffffffffffffffffff168373ffffffffffffffffffffffffffffffffffffffff1614610c6757610c668184866115d9565b5b5f73ffffffffffffffffffffffffffffffffffffffff168173ffffffffffffffffffffffffffffffffffffffff1614610cf257610ca65f855f8061141a565b600160035f8373ffffffffffffffffffffffffffffffffffffffff1673ffffffffffffffffffffffffffffffffffffffff1681526020019081526020015f205f82825403925050819055505b5f73ffffffffffffffffffffffffffffffffffffffff168573ffffffffffffffffffffffffffffffffffffffff1614610d7157600160035f8773ffffffffffffffffffffffffffffffffffffffff1673ffffffffffffffffffffffffffffffffffffffff1681526020019081526020015f205f82825401925050819055505b8460025f8681526020019081526020015f205f6101000a81548173ffffffffffffffffffffffffffffffffffffffff021916908373ffffffffffffffffffffffffffffffffffffffff160217905550838573ffffffffffffffffffffffffffffffffffffffff168273ffffffffffffffffffffffffffffffffffffffff167fddf252ad1be2c89b69c2b068fc378daa952ba7f163c4a11628f55a4df523b3ef60405160405180910390a4809150509392505050565b610e2e610c02565b73ffffffffffffffffffffffffffffffffffffffff16610e4c6106eb565b73ffffffffffffffffffffffffffffffffffffffff1614610eab57610e6f610c02565b6040517f118cdaa7000000000000000000000000000000000000000000000000000000008152600401610ea29190611c98565b60405180910390fd5b565b5f60075f9054906101000a900473ffffffffffffffffffffffffffffffffffffffff1690508160075f6101000a81548173ffffffffffffffffffffffffffffffffffffffff021916908373ffffffffffffffffffffffffffffffffffffffff1602179055508173ffffffffffffffffffffffffffffffffffffffff168173ffffffffffffffffffffffffffffffffffffffff167f8be0079c531659141344cd1fd0a4f28419497f9722a3daafe3b4186f6b6457e060405160405180910390a35050565b5f73ffffffffffffffffffffffffffffffffffffffff168273ffffffffffffffffffffffffffffffffffffffff1603610fe057816040517f5b08ba18000000000000000000000000000000000000000000000000000000008152600401610fd79190611c98565b60405180910390fd5b8060055f8573ffffffffffffffffffffffffffffffffffffffff1673ffffffffffffffffffffffffffffffffffffffff1681526020019081526020015f205f8473ffffffffffffffffffffffffffffffffffffffff1673ffffffffffffffffffffffffffffffffffffffff1681526020019081526020015f205f6101000a81548160ff0219169083151502179055508173ffffffffffffffffffffffffffffffffffffffff168373ffffffffffffffffffffffffffffffffffffffff167f17307eab39ab6107e8899845ad3d59bd9653f200f220920489ca2b5937696c31836040516110cc9190611b38565b60405180910390a3505050565b5f8373ffffffffffffffffffffffffffffffffffffffff163b111561127e578273ffffffffffffffffffffffffffffffffffffffff1663150b7a02868685856040518563ffffffff1660e01b81526004016111379493929190612316565b6020604051808303815f875af192505050801561117257506040513d601f19601f8201168201806040525081019061116f9190612374565b60015b6111f3573d805f81146111a0576040519150601f19603f3d011682016040523d82523d5f602084013e6111a5565b606091505b505f8151036111eb57836040517f64a0ae920000000000000000000000000000000000000000000000000000000081526004016111e29190611c98565b60405180910390fd5b805160208201fd5b63150b7a0260e01b7bffffffffffffffffffffffffffffffffffffffffffffffffffffffff1916817bffffffffffffffffffffffffffffffffffffffffffffffffffffffff19161461127c57836040517f64a0ae920000000000000000000000000000000000000000000000000000000081526004016112739190611c98565b60405180910390fd5b505b5050505050565b606060405180602001604052805f815250905090565b60606112a682610b43565b505f6112b0611285565b90505f8151116112ce5760405180602001604052805f8152506112f9565b806112d88461169c565b6040516020016112e992919061222d565b6040516020818303038152906040525b915050919050565b61131a828260405180602001604052805f815250611766565b5050565b8060065f8481526020019081526020015f20908161133c919061253c565b507ff8e1a15aba9398e019f0b49df1a4fde98ee17ae345cb5f6b5e2c27f5033e8ce78260405161136c9190611d78565b60405180910390a15050565b5f7f01ffc9a7000000000000000000000000000000000000000000000000000000007bffffffffffffffffffffffffffffffffffffffffffffffffffffffff1916827bffffffffffffffffffffffffffffffffffffffffffffffffffffffff1916149050919050565b5f60025f8381526020019081526020015f205f9054906101000a900473ffffffffffffffffffffffffffffffffffffffff169050919050565b808061145257505f73ffffffffffffffffffffffffffffffffffffffff168273ffffffffffffffffffffffffffffffffffffffff1614155b15611584575f61146184610b43565b90505f73ffffffffffffffffffffffffffffffffffffffff168373ffffffffffffffffffffffffffffffffffffffff16141580156114cb57508273ffffffffffffffffffffffffffffffffffffffff168173ffffffffffffffffffffffffffffffffffffffff1614155b80156114de57506114dc81846108fe565b155b1561152057826040517fa9fbf51f0000000000000000000000000000000000000000000000000000000081526004016115179190611c98565b60405180910390fd5b811561158257838573ffffffffffffffffffffffffffffffffffffffff168273ffffffffffffffffffffffffffffffffffffffff167f8c5be1e5ebec7d5bd14f71427d1e84f3dd0314c0f7b2291e5b200ac8c7c3b92560405160405180910390a45b505b8360045f8581526020019081526020015f205f6101000a81548173ffffffffffffffffffffffffffffffffffffffff021916908373ffffffffffffffffffffffffffffffffffffffff16021790555050505050565b6115e4838383611789565b611697575f73ffffffffffffffffffffffffffffffffffffffff168373ffffffffffffffffffffffffffffffffffffffff160361165857806040517f7e27328900000000000000000000000000000000000000000000000000000000815260040161164f9190611d78565b60405180910390fd5b81816040517f177e802f00000000000000000000000000000000000000000000000000000000815260040161168e92919061260b565b60405180910390fd5b505050565b60605f60016116aa84611849565b0190505f8167ffffffffffffffff8111156116c8576116c7611e5d565b5b6040519080825280601f01601f1916602001820160405280156116fa5781602001600182028036833780820191505090505b5090505f82602083010190505b60011561175b578080600190039150507f3031323334353637383961626364656600000000000000000000000000000000600a86061a8153600a85816117505761174f612632565b5b0494505f8503611707575b819350505050919050565b611770838361199a565b61178461177b610c02565b5f8585856110d9565b505050565b5f8073ffffffffffffffffffffffffffffffffffffffff168373ffffffffffffffffffffffffffffffffffffffff161415801561184057508273ffffffffffffffffffffffffffffffffffffffff168473ffffffffffffffffffffffffffffffffffffffff161480611801575061180084846108fe565b5b8061183f57508273ffffffffffffffffffffffffffffffffffffffff1661182783610bc9565b73ffffffffffffffffffffffffffffffffffffffff16145b5b90509392505050565b5f805f90507a184f03e93ff9f4daa797ed6e38ed64bf6a1f01000000000000000083106118a5577a184f03e93ff9f4daa797ed6e38ed64bf6a1f010000000000000000838161189b5761189a612632565b5b0492506040810190505b6d04ee2d6d415b85acef810000000083106118e2576d04ee2d6d415b85acef810000000083816118d8576118d7612632565b5b0492506020810190505b662386f26fc10000831061191157662386f26fc10000838161190757611906612632565b5b0492506010810190505b6305f5e100831061193a576305f5e10083816119305761192f612632565b5b0492506008810190505b612710831061195f57612710838161195557611954612632565b5b0492506004810190505b60648310611982576064838161197857611977612632565b5b0492506002810190505b600a8310611991576001810190505b80915050919050565b5f73ffffffffffffffffffffffffffffffffffffffff168273ffffffffffffffffffffffffffffffffffffffff1603611a0a575f6040517f64a0ae92000000000000000000000000000000000000000000000000000000008152600401611a019190611c98565b60405180910390fd5b5f611a1683835f610c1b565b90505f73ffffffffffffffffffffffffffffffffffffffff168173ffffffffffffffffffffffffffffffffffffffff1614611a88575f6040517f73c6ac6e000000000000000000000000000000000000000000000000000000008152600401611a7f9190611c98565b60405180910390fd5b505050565b5f604051905090565b5f80fd5b5f80fd5b5f7fffffffff0000000000000000000000000000000000000000000000000000000082169050919050565b611ad281611a9e565b8114611adc575f80fd5b50565b5f81359050611aed81611ac9565b92915050565b5f60208284031215611b0857611b07611a96565b5b5f611b1584828501611adf565b91505092915050565b5f8115159050919050565b611b3281611b1e565b82525050565b5f602082019050611b4b5f830184611b29565b92915050565b5f81519050919050565b5f82825260208201905092915050565b5f5b83811015611b88578082015181840152602081019050611b6d565b5f8484015250505050565b5f601f19601f8301169050919050565b5f611bad82611b51565b611bb78185611b5b565b9350611bc7818560208601611b6b565b611bd081611b93565b840191505092915050565b5f6020820190508181035f830152611bf38184611ba3565b905092915050565b5f819050919050565b611c0d81611bfb565b8114611c17575f80fd5b50565b5f81359050611c2881611c04565b92915050565b5f60208284031215611c4357611c42611a96565b5b5f611c5084828501611c1a565b91505092915050565b5f73ffffffffffffffffffffffffffffffffffffffff82169050919050565b5f611c8282611c59565b9050919050565b611c9281611c78565b82525050565b5f602082019050611cab5f830184611c89565b92915050565b611cba81611c78565b8114611cc4575f80fd5b50565b5f81359050611cd581611cb1565b92915050565b5f8060408385031215611cf157611cf0611a96565b5b5f611cfe85828601611cc7565b9250506020611d0f85828601611c1a565b9150509250929050565b5f805f60608486031215611d3057611d2f611a96565b5b5f611d3d86828701611cc7565b9350506020611d4e86828701611cc7565b9250506040611d5f86828701611c1a565b9150509250925092565b611d7281611bfb565b82525050565b5f602082019050611d8b5f830184611d69565b92915050565b5f60208284031215611da657611da5611a96565b5b5f611db384828501611cc7565b91505092915050565b5f819050919050565b611dce81611dbc565b82525050565b5f602082019050611de75f830184611dc5565b92915050565b611df681611b1e565b8114611e00575f80fd5b50565b5f81359050611e1181611ded565b92915050565b5f8060408385031215611e2d57611e2c611a96565b5b5f611e3a85828601611cc7565b9250506020611e4b85828601611e03565b9150509250929050565b5f80fd5b5f80fd5b7f4e487b71000000000000000000000000000000000000000000000000000000005f52604160045260245ffd5b611e9382611b93565b810181811067ffffffffffffffff82111715611eb257611eb1611e5d565b5b80604052505050565b5f611ec4611a8d565b9050611ed08282611e8a565b919050565b5f67ffffffffffffffff821115611eef57611eee611e5d565b5b611ef882611b93565b9050602081019050919050565b828183375f83830152505050565b5f611f25611f2084611ed5565b611ebb565b905082815260208101848484011115611f4157611f40611e59565b5b611f4c848285611f05565b509392505050565b5f82601f830112611f6857611f67611e55565b5b8135611f78848260208601611f13565b91505092915050565b5f805f8060808587031215611f9957611f98611a96565b5b5f611fa687828801611cc7565b9450506020611fb787828801611cc7565b9350506040611fc887828801611c1a565b925050606085013567ffffffffffffffff811115611fe957611fe8611a9a565b5b611ff587828801611f54565b91505092959194509250565b5f806040838503121561201757612016611a96565b5b5f61202485828601611cc7565b925050602061203585828601611cc7565b9150509250929050565b61204881611dbc565b8114612052575f80fd5b50565b5f813590506120638161203f565b92915050565b5f67ffffffffffffffff82111561208357612082611e5d565b5b61208c82611b93565b9050602081019050919050565b5f6120ab6120a684612069565b611ebb565b9050828152602081018484840111156120c7576120c6611e59565b5b6120d2848285611f05565b509392505050565b5f82601f8301126120ee576120ed611e55565b5b81356120fe848260208601612099565b91505092915050565b5f806040838503121561211d5761211c611a96565b5b5f61212a85828601612055565b925050602083013567ffffffffffffffff81111561214b5761214a611a9a565b5b612157858286016120da565b9150509250929050565b7f4e487b71000000000000000000000000000000000000000000000000000000005f52602260045260245ffd5b5f60028204905060018216806121a557607f821691505b6020821081036121b8576121b7612161565b5b50919050565b5f6060820190506121d15f830186611c89565b6121de6020830185611d69565b6121eb6040830184611c89565b949350505050565b5f81905092915050565b5f61220782611b51565b61221181856121f3565b9350612221818560208601611b6b565b80840191505092915050565b5f61223882856121fd565b915061224482846121fd565b91508190509392505050565b7f4e487b71000000000000000000000000000000000000000000000000000000005f52601160045260245ffd5b5f61228782611bfb565b91507fffffffffffffffffffffffffffffffffffffffffffffffffffffffffffffffff82036122b9576122b8612250565b5b600182019050919050565b5f81519050919050565b5f82825260208201905092915050565b5f6122e8826122c4565b6122f281856122ce565b9350612302818560208601611b6b565b61230b81611b93565b840191505092915050565b5f6080820190506123295f830187611c89565b6123366020830186611c89565b6123436040830185611d69565b818103606083015261235581846122de565b905095945050505050565b5f8151905061236e81611ac9565b92915050565b5f6020828403121561238957612388611a96565b5b5f61239684828501612360565b91505092915050565b5f819050815f5260205f209050919050565b5f6020601f8301049050919050565b5f82821b905092915050565b5f600883026123fb7fffffffffffffffffffffffffffffffffffffffffffffffffffffffffffffffff826123c0565b61240586836123c0565b95508019841693508086168417925050509392505050565b5f819050919050565b5f61244061243b61243684611bfb565b61241d565b611bfb565b9050919050565b5f819050919050565b61245983612426565b61246d61246582612447565b8484546123cc565b825550505050565b5f90565b612481612475565b61248c818484612450565b505050565b5b818110156124af576124a45f82612479565b600181019050612492565b5050565b601f8211156124f4576124c58161239f565b6124ce846123b1565b810160208510156124dd578190505b6124f16124e9856123b1565b830182612491565b50505b505050565b5f82821c905092915050565b5f6125145f19846008026124f9565b1980831691505092915050565b5f61252c8383612505565b9150826002028217905092915050565b61254582611b51565b67ffffffffffffffff81111561255e5761255d611e5d565b5b612568825461218e565b6125738282856124b3565b5f60209050601f8311600181146125a4575f8415612592578287015190505b61259c8582612521565b865550612603565b601f1984166125b28661239f565b5f5b828110156125d9578489015182556001820191506020850194506020810190506125b4565b868310156125f657848901516125f2601f891682612505565b8355505b6001600288020188555050505b505050505050565b5f60408201905061261e5f830185611c89565b61262b6020830184611d69565b9392505050565b7f4e487b71000000000000000000000000000000000000000000000000000000005f52601260045260245ffdfea264697066735822122069068e20f86971dd37be8f01db52c03e71e43420168324c28d8d3ab65e51579164736f6c63430008140033",
  "immutableReferences": {},
  "source": "// SPDX-License-Identifier: MIT\r\npragma solidity ^0.8.19;\r\n\r\nimport \"@openzeppelin/contracts/token/ERC721/extensions/ERC721URIStorage.sol\";\r\nimport \"@openzeppelin/contracts/access/Ownable.sol\";\r\n\r\ncontract FirearmToken is ERC721URIStorage, Ownable {\r\n    mapping(uint256 => bytes32) public serialHash;\r\n    uint256 public nextId;\r\n\r\n    // explicit base constructor calls (order matches inheritance)\r\n   constructor(address initialOwner) ERC721(\"FirearmToken\", \"GUN\") Ownable(initialOwner) {}\r\n\r\n\r\n    function mint(bytes32 _serialHash, string memory _uri) external returns (uint256) {\r\n        uint256 id = nextId;\r\n        nextId++;\r\n        _safeMint(msg.sender, id);\r\n        _setTokenURI(id, _uri);\r\n        serialHash[id] = _serialHash;\r\n        return id;\r\n    }\r\n}\r\n",
  "sourcePath": "C:\\Users\\HP\\Desktop\\guns\\contracts\\FirearmToken.sol",
  "compiler": {
    "name": "solc",
    "version": "0.8.20+commit.a1b79de6.Emscripten.clang"
  },
  "schemaVersion": "3.4.16",
  "updatedAt": "2025-09-22T04:49:20.380Z",
  "devdoc": {
    "errors": {
      "ERC721IncorrectOwner(address,uint256,address)": [
        {
          "details": "Indicates an error related to the ownership over a particular token. Used in transfers.",
          "params": {
            "owner": "Address of the current owner of a token.",
            "sender": "Address whose tokens are being transferred.",
            "tokenId": "Identifier number of a token."
          }
        }
      ],
      "ERC721InsufficientApproval(address,uint256)": [
        {
          "details": "Indicates a failure with the `operator`s approval. Used in transfers.",
          "params": {
            "operator": "Address that may be allowed to operate on tokens without being their owner.",
            "tokenId": "Identifier number of a token."
          }
        }
      ],
      "ERC721InvalidApprover(address)": [
        {
          "details": "Indicates a failure with the `approver` of a token to be approved. Used in approvals.",
          "params": {
            "approver": "Address initiating an approval operation."
          }
        }
      ],
      "ERC721InvalidOperator(address)": [
        {
          "details": "Indicates a failure with the `operator` to be approved. Used in approvals.",
          "params": {
            "operator": "Address that may be allowed to operate on tokens without being their owner."
          }
        }
      ],
      "ERC721InvalidOwner(address)": [
        {
          "details": "Indicates that an address can't be an owner. For example, `address(0)` is a forbidden owner in ERC-20. Used in balance queries.",
          "params": {
            "owner": "Address of the current owner of a token."
          }
        }
      ],
      "ERC721InvalidReceiver(address)": [
        {
          "details": "Indicates a failure with the token `receiver`. Used in transfers.",
          "params": {
            "receiver": "Address to which tokens are being transferred."
          }
        }
      ],
      "ERC721InvalidSender(address)": [
        {
          "details": "Indicates a failure with the token `sender`. Used in transfers.",
          "params": {
            "sender": "Address whose tokens are being transferred."
          }
        }
      ],
      "ERC721NonexistentToken(uint256)": [
        {
          "details": "Indicates a `tokenId` whose `owner` is the zero address.",
          "params": {
            "tokenId": "Identifier number of a token."
          }
        }
      ],
      "OwnableInvalidOwner(address)": [
        {
          "details": "The owner is not a valid owner account. (eg. `address(0)`)"
        }
      ],
      "OwnableUnauthorizedAccount(address)": [
        {
          "details": "The caller account is not authorized to perform an operation."
        }
      ]
    },
    "events": {
      "Approval(address,address,uint256)": {
        "details": "Emitted when `owner` enables `approved` to manage the `tokenId` token."
      },
      "ApprovalForAll(address,address,bool)": {
        "details": "Emitted when `owner` enables or disables (`approved`) `operator` to manage all of its assets."
      },
      "BatchMetadataUpdate(uint256,uint256)": {
        "details": "This event emits when the metadata of a range of tokens is changed. So that the third-party platforms such as NFT market could timely update the images and related attributes of the NFTs."
      },
      "MetadataUpdate(uint256)": {
        "details": "This event emits when the metadata of a token is changed. So that the third-party platforms such as NFT market could timely update the images and related attributes of the NFT."
      },
      "Transfer(address,address,uint256)": {
        "details": "Emitted when `tokenId` token is transferred from `from` to `to`."
      }
    },
    "kind": "dev",
    "methods": {
      "approve(address,uint256)": {
        "details": "Gives permission to `to` to transfer `tokenId` token to another account. The approval is cleared when the token is transferred. Only a single account can be approved at a time, so approving the zero address clears previous approvals. Requirements: - The caller must own the token or be an approved operator. - `tokenId` must exist. Emits an {Approval} event."
      },
      "balanceOf(address)": {
        "details": "Returns the number of tokens in ``owner``'s account."
      },
      "getApproved(uint256)": {
        "details": "Returns the account approved for `tokenId` token. Requirements: - `tokenId` must exist."
      },
      "isApprovedForAll(address,address)": {
        "details": "Returns if the `operator` is allowed to manage all of the assets of `owner`. See {setApprovalForAll}"
      },
      "name()": {
        "details": "Returns the token collection name."
      },
      "owner()": {
        "details": "Returns the address of the current owner."
      },
      "ownerOf(uint256)": {
        "details": "Returns the owner of the `tokenId` token. Requirements: - `tokenId` must exist."
      },
      "renounceOwnership()": {
        "details": "Leaves the contract without owner. It will not be possible to call `onlyOwner` functions. Can only be called by the current owner. NOTE: Renouncing ownership will leave the contract without an owner, thereby disabling any functionality that is only available to the owner."
      },
      "safeTransferFrom(address,address,uint256)": {
        "details": "Safely transfers `tokenId` token from `from` to `to`, checking first that contract recipients are aware of the ERC-721 protocol to prevent tokens from being forever locked. Requirements: - `from` cannot be the zero address. - `to` cannot be the zero address. - `tokenId` token must exist and be owned by `from`. - If the caller is not `from`, it must have been allowed to move this token by either {approve} or   {setApprovalForAll}. - If `to` refers to a smart contract, it must implement {IERC721Receiver-onERC721Received}, which is called upon   a safe transfer. Emits a {Transfer} event."
      },
      "safeTransferFrom(address,address,uint256,bytes)": {
        "details": "Safely transfers `tokenId` token from `from` to `to`. Requirements: - `from` cannot be the zero address. - `to` cannot be the zero address. - `tokenId` token must exist and be owned by `from`. - If the caller is not `from`, it must be approved to move this token by either {approve} or {setApprovalForAll}. - If `to` refers to a smart contract, it must implement {IERC721Receiver-onERC721Received}, which is called upon   a safe transfer. Emits a {Transfer} event."
      },
      "setApprovalForAll(address,bool)": {
        "details": "Approve or remove `operator` as an operator for the caller. Operators can call {transferFrom} or {safeTransferFrom} for any token owned by the caller. Requirements: - The `operator` cannot be the address zero. Emits an {ApprovalForAll} event."
      },
      "supportsInterface(bytes4)": {
        "details": "Returns true if this contract implements the interface defined by `interfaceId`. See the corresponding https://eips.ethereum.org/EIPS/eip-165#how-interfaces-are-identified[ERC section] to learn more about how these ids are created. This function call must use less than 30 000 gas."
      },
      "symbol()": {
        "details": "Returns the token collection symbol."
      },
      "tokenURI(uint256)": {
        "details": "Returns the Uniform Resource Identifier (URI) for `tokenId` token."
      },
      "transferFrom(address,address,uint256)": {
        "details": "Transfers `tokenId` token from `from` to `to`. WARNING: Note that the caller is responsible to confirm that the recipient is capable of receiving ERC-721 or else they may be permanently lost. Usage of {safeTransferFrom} prevents loss, though the caller must understand this adds an external call which potentially creates a reentrancy vulnerability. Requirements: - `from` cannot be the zero address. - `to` cannot be the zero address. - `tokenId` token must be owned by `from`. - If the caller is not `from`, it must be approved to move this token by either {approve} or {setApprovalForAll}. Emits a {Transfer} event."
      },
      "transferOwnership(address)": {
        "details": "Transfers ownership of the contract to a new account (`newOwner`). Can only be called by the current owner."
      }
    },
    "version": 1
  },
  "userdoc": {
    "kind": "user",
    "methods": {},
    "version": 1
  }
}